:100000000C942A000C9447000C9447000C94470071
:100010000C9447000C9447000C94C10B0C944700BF
:100020000C9447000C9447000C9447000C94470034
:100030000C9447000C9447000C9447000C94470024
:100040000C9447000C9447000C9447000C94470014
:100050000C94470011241FBECFE5D8E0DEBFCDBF12
:1000600011E0A0E6B0E0E6EFF3E702C005900D92E4
:10007000A037B107D9F711E0A0E7B1E001C01D92A8
:10008000AD3CB107E1F70E9454130C94F9390C947C
:100090000000EF92FF920F931F937B018C0120E0F1
:1000A00030E040E05FE40E94F50388238CF0C80153
:1000B000B70120E030E040E05FE40E94C1010E940F
:1000C00055049B01AC01205030404040504806C0D0
:1000D000C801B7010E9455049B01AC01B901CA01D6
:1000E0001F910F91FF90EF900895A0E0B0E0EBE733
:1000F000F0E00C94C239DC012B01FA019C919230A2
:1001000008F439C1EB018881823008F433C194309E
:1001100069F4843009F02FC111969C91119789815F
:10012000981709F428C1A0E6B0E025C1843009F48D
:1001300021C18230A9F4923009F01DC19A01AD01AC
:1001400088E0EA010990AE01E90109929E0181501F
:10015000C1F7E201898111969C918923818308C1AD
:10016000923009F407C112962D903C901397EB0141
:100170008A819B811496AD90BD90CD90DC901797AD
:10018000EC80FD800E811F819101281B390BB90184
:1001900037FF04C066277727621B730B6032710537
:1001A0000CF061C0121613066CF537014801062EDB
:1001B00004C096948794779467940A94D2F721E0C8
:1001C00030E040E050E004C0220F331F441F551FB1
:1001D0006A95D2F721503040404050402E213F21B7
:1001E00040235123211531054105510521F021E01E
:1001F00030E040E050E079018A01E628F72808293C
:1002000019293CC0232BD1F1260E371E350146019A
:10021000062E04C096948794779467940A94D2F734
:1002200021E030E040E050E004C0220F331F441FC3
:10023000551F6A95D2F721503040404050402A2146
:100240003B214C215D21211531054105510521F04E
:1002500021E030E040E050E059016A01A628B728CB
:10026000C828D9280BC0821593052CF01C01AA249C
:10027000BB24650103C0EE24FF24870111969C91E5
:10028000D20111968C91981709F445C0992339F041
:10029000A80197012A193B094C095D0906C0A6016E
:1002A00095012E193F09400B510B57FD08C01182D3
:1002B0003382228224833583468357831DC081E0A5
:1002C00081833382228288279927DC01821B930B4A
:1002D000A40BB50B84839583A683B7830DC0220F2F
:1002E000331F441F551F24833583468357838281E0
:1002F000938101979383828324813581468157813D
:10030000DA01C9010197A109B1098F5F9F4FAF4F72
:10031000BF4328F30BC0918333822282EA0CFB1C7B
:100320000C1D1D1DE482F5820683178383E0808304
:10033000248135814681578157FF1AC0C901AA27F8
:1003400097FDA095BA2F81709070A070B0705695EF
:10035000479537952795822B932BA42BB52B848318
:100360009583A683B7838281938101969383828349
:10037000DF0101C0D201CD01CDB7DEB7E2E10C94BF
:10038000DE39A0E2B0E0E7ECF1E00C94CE3969830D
:100390007A838B839C832D833E834F835887E9E048
:1003A000EE2EF12CEC0EFD1ECE010196B7010E943F
:1003B00046068E010F5E1F4FCE010596B8010E94C2
:1003C00046068A8991E089278A8BC701B801AE0168
:1003D000475E5F4F0E9475000E947105A096E6E09F
:1003E0000C94EA39A0E2B0E0E8EFF1E00C94CE39E9
:1003F00069837A838B839C832D833E834F835887C5
:10040000F9E0EF2EF12CEC0EFD1ECE010196B701A6
:100410000E9446068E010F5E1F4FCE010596B80161
:100420000E944606C701B801AE01475E5F4F0E94B9
:1004300075000E947105A096E6E00C94EA39A0E2EE
:10044000B0E0E5E2F2E00C94C23969837A838B83F1
:100450009C832D833E834F835887CE010196BE0136
:10046000675F7F4F0E944606CE010596BE016F5E14
:100470007F4F0E9446069985923088F089898230A4
:10048000C8F0943019F4823051F404C0843029F457
:10049000923081F480E690E0C6C0923049F420E0CA
:1004A0009A858A89981321E02A87CE010996BBC0D4
:1004B000823049F420E09A858A89981321E02A8BBA
:1004C000CE014196B0C02D843E844F8458886D88FB
:1004D0007E888F88988CEE24FF248701AA24BB2471
:1004E000650140E050E060E070E0E0E0F0E0C10174
:1004F00081709070892BE9F0E60CF71C081D191D1E
:100500009A01AB012A0D3B1D4C1D5D1D80E090E062
:10051000A0E0B0E0E614F7040805190520F481E036
:1005200090E0A0E0B0E0BA01A901480F591F6A1F8E
:100530007B1FAA0CBB1CCC1CDD1C97FE08C081E0F5
:1005400090E0A0E0B0E0A82AB92ACA2ADB2A3196B6
:10055000E032F10549F0660C771C881C991C569412
:10056000479437942794C3CFFA85EA892B893C892D
:100570008B859C85280F391F2E5F3F4F17C0CA01FE
:1005800081709070892B61F016950795F794E79428
:1005900080E090E0A0E0B0E8E82AF92A0A2B1B2BC3
:1005A00076956795579547952F5F3F4F77FDE7CF36
:1005B0000CC0440F551F661F771F17FD4160EE0CDE
:1005C000FF1C001F111F21503040403090E05907A0
:1005D00090E0690790E4790760F32B8F3C8FDB0193
:1005E000CA018F779070A070B07080349105A1051A
:1005F000B10561F447FD0AC0E114F10401051105DC
:1006000029F0405C5F4F6F4F7F4F40781A8EFE1786
:1006100011F081E08A8F4D8F5E8F6F8F78A383E01A
:10062000898FCE0149960E947105A096E2E10C9453
:10063000DE39A8E1B0E0EFE1F3E00C94CA39698358
:100640007A838B839C832D833E834F835887B9E0C5
:10065000EB2EF12CEC0EFD1ECE010196B7010E948F
:1006600046068E010F5E1F4FCE010596B8010E940F
:1006700046062985223008F47EC03989323010F4CC
:10068000B8017CC08A859A8989278A87243011F02D
:10069000223031F4231709F06EC060E670E06EC0BE
:1006A000343039F41D861E861F86188A1C861B86E8
:1006B00004C0323021F484E08987B7015FC02B8504
:1006C0003C858B899C89281B390B3C872B87ED84C3
:1006D000FE840F851889AD88BE88CF88D88CEA142F
:1006E000FB040C051D0540F4EE0CFF1C001F111F40
:1006F000215030403C872B8720E030E040E050E044
:1007000080E090E0A0E0B0E460E070E0EA14FB0478
:100710000C051D0540F0282B392B4A2B5B2BEA18C2
:10072000FB080C091D09B695A79597958795EE0CC2
:10073000FF1C001F111F6F5F7F4F6F31710531F775
:10074000DA01C9018F779070A070B0708034910584
:10075000A105B10561F427FD0AC0E114F10401050A
:10076000110529F0205C3F4F4F4F5F4F20782D87B8
:100770003E874F87588BBE01675F7F4FCB010E943A
:1007800071056896EAE00C94E639A8E1B0E0EBEC7C
:10079000F3E00C94CE3969837A838B839C832D8319
:1007A0003E834F83588789E0E82EF12CEC0EFD1E26
:1007B000CE010196B7010E9446068E010F5E1F4FC3
:1007C000CE010596B8010E9446068985823040F028
:1007D0008989823028F0C701B8010E94BE0601C095
:1007E0008FEF6896E6E00C94EA39A8E1B0E0EBEF11
:1007F000F3E00C94CE3969837A838B839C832D83B9
:100800003E834F83588789E0E82EF12CEC0EFD1EC5
:10081000CE010196B7010E9446068E010F5E1F4F62
:10082000CE010596B8010E9446068985823040F0C7
:100830008989823028F0C701B8010E94BE0601C034
:100840008FEF6896E6E00C94EA39A8E1B0E0EBE2BD
:10085000F4E00C94CE3969837A838B839C832D8357
:100860003E834F83588789E0E82EF12CEC0EFD1E65
:10087000CE010196B7010E9446068E010F5E1F4F02
:10088000CE010596B8010E9446068985823040F067
:100890008989823028F0C701B8010E94BE0601C0D4
:1008A00081E06896E6E00C94EA39ACE0B0E0EBE574
:1008B000F4E00C94D23969837A838B839C83CE01D4
:1008C0000196BE016B5F7F4F0E9446068D8182308C
:1008D00061F1823050F1843021F48E81882351F10E
:1008E0002EC02F81388537FD20C06E812F31310514
:1008F0001CF06623F9F023C08EE190E0821B930B7D
:1009000029853A854B855C8504C056954795379572
:1009100027958A95D2F76623B1F05095409530958A
:1009200021953F4F4F4F5F4F0EC020E030E040E039
:1009300050E009C02FEF3FEF4FEF5FE704C020E02A
:1009400030E040E050E8B901CA012C96E2E00C9496
:10095000EE39A8E0B0E0EFEAF4E00C94CA397B018C
:100960008C01611571058105910519F482E0898377
:1009700060C083E089838EE1C82ED12CDC82CB82DB
:10098000ED82FE820F831887C801B7010E942205FD
:10099000FC013197F7FF3BC0222733272E1B3F0B6B
:1009A00057016801022E04C0D694C794B794A79447
:1009B0000A94D2F740E050E060E070E081E090E01F
:1009C000A0E0B0E004C0880F991FAA1FBB1F2A95A2
:1009D000D2F70197A109B1098E219F21A023B1234C
:1009E0000097A105B10521F041E050E060E070E022
:1009F0004A295B296C297D294D835E836F83788723
:100A00008EE190E08E1B9F0B9C838B8312C03097EE
:100A100081F00E2E04C0EE0CFF1C001F111F0A9463
:100A2000D2F7ED82FE820F831887CE1ADF0ADC82AE
:100A3000CB821A82CE0101960E9471052896EAE0C7
:100A40000C94E639EF92FF920F931F937B018C0178
:100A500080E0E81680E0F80681E0080780E01807EB
:100A600088F48FEFE816F1040105110531F028F044
:100A700088E090E0A0E0B0E017C080E090E0A0E067
:100A8000B0E012C080E0E81680E0F80680E00807D9
:100A900081E0180728F088E190E0A0E0B0E004C011
:100AA00080E190E0A0E0B0E020E230E040E050E003
:100AB000281B390B4A0B5B0B04C016950795F7945E
:100AC000E7948A95D2F7F701E859FF4F8081281BF8
:100AD000310941095109C9011F910F91FF90EF9010
:100AE0000895DF92EF92FF920F931F93FC01E48031
:100AF000F58006811781D1808081823048F480E0C2
:100B000090E0A0E1B0E0E82AF92A0A2B1B2BA5C04F
:100B1000843009F49FC0823021F4EE24FF24870141
:100B200005C0E114F1040105110519F4E0E0F0E05D
:100B300096C0628173819FEF623879070CF05BC0C9
:100B400022E83FEF261B370B2A3131052CF020E03D
:100B500030E040E050E02AC0B801A701022E04C0F6
:100B600076956795579547950A94D2F781E090E07E
:100B7000A0E0B0E004C0880F991FAA1FBB1F2A95F0
:100B8000D2F70197A109B1098E219F21A023B1239A
:100B90000097A105B10521F081E090E0A0E0B0E070
:100BA0009A01AB01282B392B4A2B5B2BDA01C901A7
:100BB0008F779070A070B07080349105A105B10559
:100BC00039F427FF09C0205C3F4F4F4F5F4F04C0EF
:100BD000215C3F4F4F4F5F4FE0E0F0E02030A0E05E
:100BE0003A07A0E04A07A0E45A0710F0E1E0F0E07D
:100BF00079018A0127C06038710564F5FB01E1586D
:100C0000FF4FD801C7018F779070A070B07080340B
:100C10009105A105B10539F4E7FE0DC080E490E02F
:100C2000A0E0B0E004C08FE390E0A0E0B0E0E80E08
:100C3000F91E0A1F1B1F17FF05C016950795F7948D
:100C4000E794319687E016950795F794E7948A958F
:100C5000D1F705C0EE24FF248701EFEFF0E06E2FFF
:100C6000679566276795902F9F77D794DD24D79453
:100C70008E2F8695492F462B582F5D29B701CA0123
:100C80001F910F91FF90EF90DF900895FC01DB0121
:100C9000408151812281622F6F7770E0221F2227CD
:100CA000221F9381892F880F822B282F30E0991FD4
:100CB0009927991F11969C93119721153105A9F534
:100CC000411551056105710511F482E037C082E8D4
:100CD0009FEF13969C938E9312979A01AB0167E056
:100CE000220F331F441F551F6A95D1F783E08C9361
:100CF0000DC0220F331F441F551F12968D919C91DA
:100D00001397019713969C938E931297203080E04F
:100D1000380780E0480780E4580758F314962D936D
:100D20003D934D935C93179708952F3F310579F4C8
:100D3000411551056105710519F484E08C930895FE
:100D400064FF03C081E08C9312C01C9210C02F5727
:100D5000304013963C932E93129783E08C9387E058
:100D6000440F551F661F771F8A95D1F7706414963C
:100D70004D935D936D937C93179708951F93DC01BA
:100D8000FB019C91923008F447C08081823008F4C6
:100D900043C0943051F411961C91843099F58181AF
:100DA000682F70E0611B71093FC0843021F09230E0
:100DB00031F48230B9F18181882389F12DC01196F7
:100DC0001C9111978230F1F081811817D9F4129695
:100DD0002D913C911397828193818217930794F010
:100DE00028173907BCF014968D919D910D90BC91F8
:100DF000A02D2481358146815781281739074A075C
:100E00005B0718F4112341F00AC082179307A40767
:100E1000B50740F4112319F061E070E005C06FEFF1
:100E20007FEF02C060E070E0CB011F910895DF9377
:100E3000CF93CDB7DEB727970FB6F894DEBF0FBEBE
:100E4000CDBF89836A834B838B81882309F075C06A
:100E50008981282F30E03F832E838E819F818230CD
:100E6000910561F12E813F812330310534F48E816B
:100E70009F818130910569F0D3C02E813F8123305D
:100E8000310589F18E819F818430910509F440C03C
:100E9000C7C0AAE3B0E0EAE3F0E08081482F8A818E
:100EA000282F30E081E090E0022E02C0880F991FC9
:100EB0000A94E2F7809584238C93B2C0A7E3B0E054
:100EC000E7E3F0E08081482F8A81282F30E081E03D
:100ED00090E0022E02C0880F991F0A94E2F78095D5
:100EE00084238C939DC0A4E3B0E0E4E3F0E0808130
:100EF000482F8A81282F30E081E090E0022E02C046
:100F0000880F991F0A94E2F7809584238C9388C0F8
:100F1000A1E3B0E0E1E3F0E08081482F8A81282F4F
:100F200030E081E090E0022E02C0880F991F0A9401
:100F3000E2F7809584238C9373C08B81813009F014
:100F40006FC08981282F30E03D832C838C819D8167
:100F50008230910551F12C813D812330310534F4EB
:100F60008C819D818130910561F05AC02C813D8139
:100F70002330310571F18C819D8184309105E9F137
:100F80004FC0AAE3B0E0EAE3F0E08081482F8A8115
:100F9000282F30E081E090E0022E02C0880F991FD8
:100FA0000A94E2F7842B8C933BC0A7E3B0E0E7E31D
:100FB000F0E08081482F8A81282F30E081E090E0A6
:100FC000022E02C0880F991F0A94E2F7842B8C939B
:100FD00027C0A4E3B0E0E4E3F0E08081482F8A81F9
:100FE000282F30E081E090E0022E02C0880F991F88
:100FF0000A94E2F7842B8C9313C0A1E3B0E0E1E301
:10100000F0E08081482F8A81282F30E081E090E055
:10101000022E02C0880F991F0A94E2F7842B8C934A
:1010200027960FB6F894DEBF0FBECDBFCF91DF91EC
:101030000895DF93CF93CDB7DEB727970FB6F89417
:10104000DEBF0FBECDBF89836A834B838B8188232C
:1010500009F075C08981282F30E03F832E838E816F
:101060009F818230910561F12E813F8123303105CE
:1010700034F48E819F818130910569F0D3C02E8137
:101080003F812330310589F18E819F818430910524
:1010900009F440C0C7C0ABE3B0E0EBE3F0E080810F
:1010A000482F8A81282F30E081E090E0022E02C094
:1010B000880F991F0A94E2F7809584238C93B2C01D
:1010C000A8E3B0E0E8E3F0E08081482F8A81282F90
:1010D00030E081E090E0022E02C0880F991F0A9450
:1010E000E2F7809584238C939DC0A5E3B0E0E5E30F
:1010F000F0E08081482F8A81282F30E081E090E065
:10110000022E02C0880F991F0A94E2F7809584236B
:101110008C9388C0A2E3B0E0E2E3F0E08081482F46
:101120008A81282F30E081E090E0022E02C0880FF3
:10113000991F0A94E2F7809584238C9373C08B8166
:10114000813009F06FC08981282F30E03D832C83E6
:101150008C819D818230910551F12C813D8123301C
:10116000310534F48C819D818130910561F05AC044
:101170002C813D812330310571F18C819D8184303A
:101180009105E9F14FC0ABE3B0E0EBE3F0E0808123
:10119000482F8A81282F30E081E090E0022E02C0A3
:1011A000880F991F0A94E2F7842B8C933BC0A8E325
:1011B000B0E0E8E3F0E08081482F8A81282F30E01A
:1011C00081E090E0022E02C0880F991F0A94E2F796
:1011D000842B8C9327C0A5E3B0E0E5E3F0E08081A9
:1011E000482F8A81282F30E081E090E0022E02C053
:1011F000880F991F0A94E2F7842B8C9313C0A2E303
:10120000B0E0E2E3F0E08081482F8A81282F30E0CF
:1012100081E090E0022E02C0880F991F0A94E2F745
:10122000842B8C9327960FB6F894DEBF0FBECDBFEC
:10123000CF91DF910895DF93CF9300D000D0CDB749
:10124000DEB789836A838981282F30E03C832B8332
:101250008B819C8182309105D9F02B813C81233098
:10126000310534F48B819C818130910561F01EC081
:101270002B813C812330310581F08B819C8184302E
:10128000910581F013C0EAE3F0E08A8180830EC00B
:10129000E7E3F0E08A81808309C0E4E3F0E08A813B
:1012A000808304C0E1E3F0E08A8180830F900F9097
:1012B0000F900F90CF91DF910895DF93CF9300D0DF
:1012C00000D0CDB7DEB789836A838981282F30E0CB
:1012D0003C832B838B819C8182309105D9F02B81BB
:1012E0003C812330310534F48B819C818130910520
:1012F00061F01EC02B813C812330310581F08B8150
:101300009C818430910581F013C0EBE3F0E08A8189
:1013100080830EC0E8E3F0E08A81808309C0E5E3C2
:10132000F0E08A81808304C0E2E3F0E08A81808378
:101330000F900F900F900F90CF91DF910895DF9352
:10134000CF9300D000D00F92CDB7DEB78A836B83E6
:101350008A81282F30E03D832C834C815D8142308F
:10136000510541F18C819D818330910534F42C81AC
:101370003D812130310561F052C04C815D814330A7
:10138000510551F18C819D8184309105B9F147C09F
:10139000E9E3F0E08081282F30E08B81882F90E016
:1013A000A90102C0559547958A95E2F7CA01817057
:1013B000898335C0E6E3F0E08081282F30E08B811F
:1013C000882F90E0A90102C0559547958A95E2F7CC
:1013D000CA018170898323C0E3E3F0E08081282F74
:1013E00030E08B81882F90E0A90102C05595479588
:1013F0008A95E2F7CA018170898311C0E0E3F0E0C9
:101400008081282F30E08B81882F90E0A90102C0D5
:10141000559547958A95E2F7CA018170898389813C
:101420000F900F900F900F900F90CF91DF91089534
:10143000DF93CF93CDB7DEB7AFE5B0E0EFE5F0E0F7
:10144000808180688C93CF91DF910895DF93CF9353
:10145000CDB7DEB7AFE5B0E0EFE5F0E080818F77A4
:101460008C93CF91DF910895DF93CF9300D0CDB7C8
:10147000DEB78A838A81482F50E0CA019C01220F7F
:10148000331FC9019695982F882797958795821BBA
:10149000930B840F951F24E630E0B9010E94AE390A
:1014A000CB018983A3E5B0E0E3E5F0E08081482F3C
:1014B000E2E5F0E08081282F30E081E090E002C09A
:1014C000880F991F2A95E2F7809584238C93A3E5D2
:1014D000B0E0E3E5F0E0808180648C93A3E5B0E0C8
:1014E000E3E5F0E0808188608C93A3E5B0E0E3E57C
:1014F000F0E0808180628C93A3E5B0E0E3E5F0E06A
:10150000808184608C9382E063E041E00E94170751
:10151000ECE5F0E0898180830F900F90CF91DF910F
:101520000895DF93CF93CDB7DEB7A5E4B0E0E5E44F
:10153000F0E0808180648C93A5E4B0E0E5E4F0E025
:10154000808188608C93A5E4B0E0E5E4F0E08081E0
:1015500081608C93A5E4B0E0E5E4F0E080818D7FCC
:101560008C93A5E4B0E0E5E4F0E0808184608C93A6
:10157000E3E4F0E080E48083A5E4B0E0E5E4F0E0BB
:10158000808180628C93A5E4B0E0E5E4F0E08081A6
:101590008F7E8C9384E067E04FEF0E941707CF9116
:1015A000DF910895DF93CF9300D00F92CDB7DEB7D0
:1015B0009B838A834A815B81CA019C01220F331F6E
:1015C000C9019695982F882797958795821B930B2D
:1015D000840F951F24E630E0B9010E94AE39CB019B
:1015E0008983A5E4B0E0E5E4F0E08081482FE4E4FD
:1015F000F0E08081282F30E081E090E0022E02C0F0
:10160000880F991F0A94E2F7809584238C93A5E4B0
:10161000B0E0E5E4F0E080818F778C93A5E4B0E062
:10162000E5E4F0E080818C668C93E3E4F0E08A816D
:1016300080830F900F900F90CF91DF910895DF93EB
:10164000CF930F92CDB7DEB786E88983ABE2B0E0E7
:10165000EBE2F0E080818D7F8C93AAE2B0E0EAE2D9
:10166000F0E080818B7F8C9389818460898389817C
:101670008260898389818068898389818F7B89835E
:1016800089818F7D898389818F7E89838981886023
:101690008983E0E4F0E089818083E9E2F0E083E39C
:1016A00080830E94890B0E94A50B0F90CF91DF9140
:1016B0000895DF93CF930F92CDB7DEB7898301C032
:1016C0000000EBE2F0E08081829586958770882F9C
:1016D00090E081709070009799F3ECE2F0E08981DE
:1016E00080830F90CF91DF910895DF93CF93CDB793
:1016F000DEB701C00000EBE2F0E08081881F8827A0
:10170000881F8130B9F7ECE2F0E08081CF91DF9162
:101710000895DF93CF93CDB7DEB7AAE2B0E0EAE257
:10172000F0E0808180618C93CF91DF910895DF9309
:10173000CF93CDB7DEB7AAE2B0E0EAE2F0E0808175
:101740008F7E8C93CF91DF910895DF93CF93CDB7A8
:10175000DEB7AAE2B0E0EAE2F0E0808188608C9334
:10176000CF91DF910895DF93CF93CDB7DEB7AAE293
:10177000B0E0EAE2F0E08081877F8C93CF91DF9147
:1017800008951F920F920FB60F9211242F933F933B
:101790004F935F936F937F938F939F93AF93BF9379
:1017A000EF93FF93DF93CF93CDB7DEB780917001B6
:1017B00090917101009729F0E0917001F091710111
:1017C0000995CF91DF91FF91EF91BF91AF919F91DB
:1017D0008F917F916F915F914F913F912F910F90DA
:1017E0000FBE0F901F901895DF93CF9300D0CDB709
:1017F000DEB79A838983A1E3B0E0E1E3F0E0808182
:101800008F7B8C93EFE4F0E08CE08083AEE4B0E07B
:10181000EEE4F0E08081982F987FE981FA81808161
:10182000892B8C93AEE4B0E0EEE4F0E08081282FC9
:101830002F7BE981FA818181882F90E000249695A1
:1018400087950794969587950794982F802D822BDE
:101850008C93ECE4F0E011821082E6E4F0E0118277
:101860001082A9E5B0E0E9E5F0E0808180628C9328
:101870000F900F90CF91DF910895DF93CF9300D019
:10188000CDB7DEB79A83898389819A81909371015C
:10189000809370010F900F90CF91DF910895DF93A7
:1018A000CF930F92CDB7DEB78983AEE4B0E0EEE41C
:1018B000F0E08081282F2F7B8981882F90E0002401
:1018C000969587950794969587950794982F802DE0
:1018D000822B8C930F90CF91DF910895DF93CF935C
:1018E000CDB7DEB7E6E4F0E080819181CF91DF9162
:1018F0000895DF93CF93CDB7DEB7ECE4F0E011822B
:101900001082CF91DF910895DF93CF93CDB7DEB7EB
:10191000EFE4F0E01082EEE4F0E01082ECE4F0E0BE
:1019200011821082E6E4F0E011821082A9E5B0E0B5
:10193000E9E5F0E080818F7D8C93CF91DF91089570
:10194000DF93CF93CDB7DEB781E060E041E00E9446
:10195000170781E061E041E00E94170784E067E03B
:1019600041E00E941707CF91DF910895DF93CF9355
:10197000CDB7DEB781E060E040E00E94190881E069
:1019800061E041E00E941908CF91DF910895DF9353
:10199000CF93CDB7DEB781E061E040E00E94190847
:1019A00081E060E041E00E941908CF91DF91089545
:1019B000DF93CF93CDB7DEB781E060E040E00E94D7
:1019C000190881E061E040E00E941908CF91DF91A1
:1019D0000895DF93CF93CDB7DEB781E064E041E0B7
:1019E0000E94170781E065E041E00E94170784E04C
:1019F00067E041E00E941707CF91DF910895DF93E0
:101A0000CF93CDB7DEB781E064E040E00E941908D3
:101A100081E065E041E00E941908CF91DF910895CF
:101A2000DF93CF93CDB7DEB781E065E040E00E9461
:101A3000190881E064E041E00E941908CF91DF912C
:101A40000895DF93CF93CDB7DEB781E064E040E047
:101A50000E94190881E065E040E00E941908CF91DA
:101A6000DF910895DF93CF93CDB7DEB781E064E0D7
:101A700041E00E94170781E065E041E00E941707FE
:101A800084E067E041E00E941707CF91DF9108955D
:101A9000DF93CF93CDB7DEB781E064E040E00E94F2
:101AA000190881E065E041E00E941908CF91DF91BB
:101AB0000895DF93CF93CDB7DEB781E065E040E0D6
:101AC0000E94190881E064E041E00E941908CF916A
:101AD000DF910895DF93CF93CDB7DEB781E064E067
:101AE00040E00E94190881E065E040E00E9419088A
:101AF000CF91DF910895DF93CF93CDB7DEB781E02B
:101B000060E041E00E94170781E061E041E00E944F
:101B1000170784E067E041E00E941707CF91DF914B
:101B20000895DF93CF93CDB7DEB781E060E040E06A
:101B30000E94190881E061E041E00E941908CF91FC
:101B4000DF910895DF93CF93CDB7DEB781E061E0F9
:101B500040E00E94190881E060E041E00E9419081D
:101B6000CF91DF910895DF93CF93CDB7DEB781E0BA
:101B700060E040E00E94190881E061E040E00E94DE
:101B80001908CF91DF910895DF93CF930F92CDB7CE
:101B9000DEB789838981882321F483E10E94340A96
:101BA00006C089818A3519F487E00E94340A0F90B3
:101BB000CF91DF910895DF93CF93CDB7DEB78091BA
:101BC0007E018F5F80937E0180917E01813031F4B0
:101BD0000E94790C80E00E944F0C0FC080917E0122
:101BE000823059F40E946E0C90938201809381019F
:101BF00081E00E944F0C10927E01CF91DF910895F9
:101C0000DF93CF93CDB7DEB780917F018F5F809355
:101C10007F0180917F01813031F40E94790C80E056
:101C20000E944F0C0FC080917F01823059F40E94B6
:101C30006E0C909384018093830181E00E944F0C8D
:101C400010927F01CF91DF910895DF93CF93CDB7AD
:101C5000DEB7809180018F5F809380018091800149
:101C6000813031F40E94790C80E00E944F0C0FC04B
:101C700080918001823059F40E946E0C909386010D
:101C80008093850181E00E944F0C10928001CF91DA
:101C9000DF910895DF93CF930F92CDB7DEB782E047
:101CA00089838BED9DE00E943D0CCE0101960E9440
:101CB000F40B82E064E041E00E94170782E064E0F8
:101CC00040E00E9419080F90CF91DF910895DF93B3
:101CD000CF930F92CDB7DEB782E0898380E09EE09C
:101CE0000E943D0CCE0101960E94F40B82E065E05B
:101CF00041E00E94170782E065E040E00E94190879
:101D00000F90CF91DF910895DF93CF930F92CDB7CE
:101D1000DEB782E0898385E29EE00E943D0CCE0121
:101D200001960E94F40B82E066E041E00E941707F2
:101D300082E066E040E00E9419080F90CF91DF91A9
:101D40000895DF93CF93CDB7DEB768970FB6F894B9
:101D5000DEBF0FBECDBF82E064E041E00E94190803
:101D600080E090E0A0E2B1E48D8B9E8BAF8BB88FCA
:101D70006D897E898F89988D2BEA3AEA4AE250E490
:101D80000E941F02DC01CB01898B9A8BAB8BBC8B31
:101D900069897A898B899C8920E030E040E85FE39B
:101DA0000E94250488231CF481E0888B91C06989F6
:101DB0007A898B899C8920E030E04FE753E40E94C8
:101DC000C50318160CF07BC06D897E898F89988DAC
:101DD00020E030E04AE754E40E941903DC01CB0123
:101DE0008C879D87AE87BF876C857D858E859F8517
:101DF00020E030E04AEF54E40E941F02DC01CB01F6
:101E000088879987AA87BB87688579858A859B8516
:101E100020E030E040E85FE30E94250488232CF4B2
:101E200081E090E09F838E833FC0688579858A85B5
:101E30009B8520E03FEF4FE757E40E94C50318164B
:101E40004CF56C857D858E859F8520E030E040E2F5
:101E500051E40E941F02DC01CB01BC01CD010E94B4
:101E60004900DC01CB019F838E830FC088EC90E09A
:101E70009D838C838C819D810197F1F79D838C8359
:101E80008E819F8101979F838E838E819F81009792
:101E900069F724C0688579858A859B850E944900F9
:101EA000DC01CB019F838E838E819F819B838A83FC
:101EB0008A819B810197F1F79B838A830FC069898F
:101EC0007A898B899C890E944900DC01CB01888B2F
:101ED0008889898389818A95F1F7898382E064E022
:101EE00040E00E94190868960FB6F894DEBF0FBE56
:101EF000CDBFCF91DF910895DF93CF93CDB7DEB7FC
:101F000068970FB6F894DEBF0FBECDBF82E065E0E4
:101F100041E00E94190880E090E0A0E2B1E48D8BDE
:101F20009E8BAF8BB88F6D897E898F89988D2BEAB8
:101F30003AEA4AE250E40E941F02DC01CB01898B9D
:101F40009A8BAB8BBC8B69897A898B899C8920E0C1
:101F500030E040E85FE30E94250488231CF481E020
:101F6000888B91C069897A898B899C8920E030E0CF
:101F70004FE753E40E94C50318160CF07BC06D892F
:101F80007E898F89988D20E030E04AE754E40E94F2
:101F90001903DC01CB018C879D87AE87BF876C85D9
:101FA0007D858E859F8520E030E04AEF54E40E94D5
:101FB0001F02DC01CB0188879987AA87BB876885C8
:101FC00079858A859B8520E030E040E85FE30E94C8
:101FD000250488232CF481E090E09F838E833FC00A
:101FE000688579858A859B8520E03FEF4FE757E438
:101FF0000E94C50318164CF56C857D858E859F85DE
:1020000020E030E040E251E40E941F02DC01CB01FD
:10201000BC01CD010E944900DC01CB019F838E836E
:102020000FC088EC90E09D838C838C819D8101970B
:10203000F1F79D838C838E819F8101979F838E838F
:102040008E819F81009769F724C0688579858A858C
:102050009B850E944900DC01CB019F838E838E818A
:102060009F819B838A838A819B810197F1F79B8360
:102070008A830FC069897A898B899C890E9449006B
:10208000DC01CB01888B8889898389818A95F1F766
:10209000898382E065E040E00E94190868960FB6E7
:1020A000F894DEBF0FBECDBFCF91DF910895DF93CF
:1020B000CF93CDB7DEB768970FB6F894DEBF0FBEEB
:1020C000CDBF82E066E041E00E94190880E090E028
:1020D000A0E2B1E48D8B9E8BAF8BB88F6D897E892A
:1020E0008F89988D2BEA3AEA4AE250E40E941F0257
:1020F000DC01CB01898B9A8BAB8BBC8B69897A898C
:102100008B899C8920E030E040E85FE30E94250451
:1021100088231CF481E0888B91C069897A898B8936
:102120009C8920E030E04FE753E40E94C503181675
:102130000CF07BC06D897E898F89988D20E030E01E
:102140004AE754E40E941903DC01CB018C879D8788
:10215000AE87BF876C857D858E859F8520E030E0CA
:102160004AEF54E40E941F02DC01CB018887998763
:10217000AA87BB87688579858A859B8520E030E0C2
:1021800040E85FE30E94250488232CF481E090E07E
:102190009F838E833FC0688579858A859B8520E0F3
:1021A0003FEF4FE757E40E94C50318164CF56C85C6
:1021B0007D858E859F8520E030E040E251E40E94DD
:1021C0001F02DC01CB01BC01CD010E944900DC01F2
:1021D000CB019F838E830FC088EC90E09D838C831E
:1021E0008C819D810197F1F79D838C838E819F81E6
:1021F00001979F838E838E819F81009769F724C00A
:10220000688579858A859B850E944900DC01CB0120
:102210009F838E838E819F819B838A838A819B810A
:102220000197F1F79B838A830FC069897A898B892B
:102230009C890E944900DC01CB01888B88898983B5
:1022400089818A95F1F7898382E066E040E00E9407
:10225000190868960FB6F894DEBF0FBECDBFCF91B8
:10226000DF910895DF93CF93CDB7DEB72E970FB6EA
:10227000F894DEBF0FBECDBF0E94A10E80918101F8
:1022800090918201CC01A0E0B0E0BC01CD010E94A0
:10229000A904DC01CB01BC01CD0120E030E046E621
:1022A00052E40E941903DC01CB01809372019093E8
:1022B0007301A0937401B093750180E090E0A8E4ED
:1022C000B2E48B879C87AD87BE876B857C858D85C7
:1022D0009E8520E030E04AEF54E40E941F02DC01BA
:1022E000CB018F839887A987BA876F817885898585
:1022F0009A8520E030E040E85FE30E9425048823CF
:102300002CF481E090E09E838D833FC06F817885BF
:1023100089859A8520E03FEF4FE757E40E94C50387
:1023200018164CF56B857C858D859E8520E030E008
:1023300040E251E40E941F02DC01CB01BC01CD014F
:102340000E944900DC01CB019E838D830FC088EC85
:1023500090E09C838B838B819C810197F1F79C8318
:102360008B838D819E8101979E838D838D819E813C
:10237000009769F714C06F81788589859A850E94D6
:102380004900DC01CB019E838D838D819E819A83E0
:10239000898389819A810197F1F79A8389830E94C1
:1023A000840C8091720190917301A0917401B0919D
:1023B0007501BC01CD010E944900DC01CB012E96C4
:1023C0000FB6F894DEBF0FBECDBFCF91DF91089559
:1023D000DF93CF93CDB7DEB72E970FB6F894DEBF5D
:1023E0000FBECDBF0E947C0F80918301909184012C
:1023F000CC01A0E0B0E0BC01CD010E94A904DC0149
:10240000CB01BC01CD0120E030E046E652E40E9461
:102410001903DC01CB018093760190937701A0939F
:102420007801B093790180E090E0A8E4B2E48B8772
:102430009C87AD87BE876B857C858D859E8520E0DA
:1024400030E04AEF54E40E941F02DC01CB018F838D
:102450009887A987BA876F81788589859A8520E0D2
:1024600030E040E85FE30E94250488232CF481E0FB
:1024700090E09E838D833FC06F81788589859A85A2
:1024800020E03FEF4FE757E40E94C50318164CF5D4
:102490006B857C858D859E8520E030E040E251E4AF
:1024A0000E941F02DC01CB01BC01CD010E9449004A
:1024B000DC01CB019E838D830FC088EC90E09C8370
:1024C0008B838B819C810197F1F79C838B838D811A
:1024D0009E8101979E838D838D819E81009769F7F0
:1024E00014C06F81788589859A850E944900DC0136
:1024F000CB019E838D838D819E819A83898389817F
:102500009A810197F1F79A8389830E94840C8091C4
:10251000760190917701A0917801B0917901BC0189
:10252000CD010E944900DC01CB012E960FB6F89434
:10253000DEBF0FBECDBFCF91DF910895DF93CF9364
:10254000CDB7DEB72E970FB6F894DEBF0FBECDBF66
:102550000E9457108091850190918601CC01A0E0E6
:10256000B0E0BC01CD010E94A904DC01CB01BC019B
:10257000CD0120E030E046E652E40E941903DC0180
:10258000CB0180937A0190937B01A0937C01B0935F
:102590007D0180E090E0A8E4B2E48B879C87AD8762
:1025A000BE876B857C858D859E8520E030E04AEF77
:1025B00054E40E941F02DC01CB018F839887A98716
:1025C000BA876F81788589859A8520E030E040E878
:1025D0005FE30E94250488232CF481E090E09E8331
:1025E0008D833FC06F81788589859A8520E03FEF94
:1025F0004FE757E40E94C50318164CF56B857C85A0
:102600008D859E8520E030E040E251E40E941F026B
:10261000DC01CB01BC01CD010E944900DC01CB01F2
:102620009E838D830FC088EC90E09C838B838B818D
:102630009C810197F1F79C838B838D819E8101970B
:102640009E838D838D819E81009769F714C06F8171
:10265000788589859A850E944900DC01CB019E839B
:102660008D838D819E819A83898389819A81019747
:10267000F1F79A8389830E94840C80917A0190916A
:102680007B01A0917C01B0917D01BC01CD010E9434
:102690004900DC01CB012E960FB6F894DEBF0FBEC9
:1026A000CDBFCF91DF910895EF92FF920F931F93CB
:1026B000DF93CF93CDB7DEB7CC58D0400FB6F894A8
:1026C000DEBF0FBECDBF0E941F0B84E060E040E084
:1026D0000E94170784E061E041E00E941707A7E32A
:1026E000B0E0E7E3F0E080818E7F8C93A8E3B0E078
:1026F000E8E3F0E0808181608C93A7E3B0E0E7E35A
:10270000F0E080818D7F8C93A8E3B0E0E8E3F0E017
:10271000808182608C930E949B350E94180A84E01D
:1027200062E040E00E94170784E063E040E00E941E
:10273000170781E062E040E00E94170781E063E054
:1027400040E00E94170781E066E040E00E94170722
:1027500083E060E040E00E94170783E060E041E032
:102760000E94190883E061E040E00E94170783E0BF
:1027700061E041E00E9419080E94910A80916A017B
:1027800090916B019C01220F331FC901880F991F83
:10279000880F991F820F931F28E230E0B9010E9431
:1027A000AE39CB0190939B0180939A0180916A018D
:1027B00090916B019C0136952795369527958091D0
:1027C0006A0190916B01820F931F9093B6018093E1
:1027D000B5018091B5019091B6019C01220F331F84
:1027E000C901880F991F880F991F820F931F28E234
:1027F00030E0B9010E94AE39CB019C01220F331F9A
:10280000C901880F991F880F991F820F931F9093FA
:102810008F0180938E0180918E0190918F0125E030
:1028200030E0B9010E94AE39CB019093A3018093AF
:10283000A201809168019091690123E030E0B90123
:102840000E94AE39CB019C01809168019091690191
:10285000820F931F909395018093940120918E0194
:1028600030918F0180919A0190919B01281B390B27
:1028700084E690E0AC01249FC001259F900D349F19
:10288000900D1124969587959093BC018093BB0180
:1028900020916A0130916B018CE291E0FC012E9F46
:1028A000C0012F9F900D3E9F900D11249695879506
:1028B00096958795CC01A0E0B0E0BC01CD010E94C7
:1028C000A904DC01CB01BC01CD0120E030E040E2F5
:1028D00052E40E941903DC01CB018093A80190937C
:1028E000A901A093AA01B093AB0180916A019091D4
:1028F0006B01CC01A0E0B0E0BC01CD010E94A904B5
:102900007B018C0180916A0190916B01CC01A0E068
:10291000B0E0BC01CD010E94A9049B01AC01CA0139
:10292000B9010E94F201DC01CB01BC01CD0120E024
:1029300030E040EA50E40E941903DC01CB019C0125
:10294000AD01C801B7010E94F201DC01CB01BC015D
:10295000CD0120E030E048EC52E40E941F02DC018F
:10296000CB01BC01CD0120E030E040E252E40E9406
:102970001903DC01CB018093900190939101A09306
:102980009201B093930180916A0190916B012AE0CA
:1029900030E0B9010E94AE39CB019C0180916A01FF
:1029A00090916B01280F391F84E690E0AC01249FC1
:1029B000C001259F900D349F900D1124CC01A0E003
:1029C000B0E0BC01CD010E94A904DC01CB01BC0137
:1029D000CD0120E030E040E252E40E941903DC0126
:1029E000CB018093B0019093B101A093B201B09359
:1029F000B30180916A0190916B01FC01EE0FFF1F02
:102A000080916A0190916B01880F991F2AE030E054
:102A1000B9010E94AE39CB019F01280F391F84E60E
:102A200090E0FC012E9FC0012F9F900D3E9F900DC6
:102A30001124CC01A0E0B0E0BC01CD010E94A904AA
:102A4000DC01CB01BC01CD0120E030E040E252E4EA
:102A50000E941903DC01CB018093AC019093AD017E
:102A6000A093AE01B093AF0120916A0130916B0148
:102A700082E390E0AC01249FC001259F900D349F1C
:102A8000900D1124CC01A0E0B0E0BC01CD010E946A
:102A9000A904DC01CB01BC01CD0120E030E040E223
:102AA00052E40E941903DC01CB0180938A019093C8
:102AB0008B01A0938C01B0938D0180916A0190915C
:102AC0006B01CC01A0E0B0E0BC01CD010E94A904E3
:102AD0007B018C0180916A0190916B01CC01A0E097
:102AE000B0E0BC01CD010E94A904DC01CB01BC0116
:102AF000CD0120E030E040E050E40E941903DC0109
:102B0000CB019C01AD01C801B7010E94F201DC01BB
:102B1000CB01BC01CD0120E030E048EC52E40E9442
:102B20001F02DC01CB01BC01CD0120E030E040E21E
:102B300052E40E941903DC01CB018093BF01909302
:102B4000C001A093C101B093C20120916A013091EC
:102B50006B0184E690E0FC012E9FC0012F9F900D39
:102B60003E9F900D1124CC01A0E0B0E0BC01CD014E
:102B70000E94A904DC01CB01BC01CD0120E030E0C2
:102B800040E252E40E941903DC01CB018093A401CE
:102B90009093A501A093A601B093A70120916A018B
:102BA00030916B0184E690E0289FA001299F500D91
:102BB000389F500D11248091A2019091A3019C0196
:102BC000220F331FC901880F991F880F991F820F89
:102BD000931F840F951FCC01A0E0B0E0BC01CD0194
:102BE0000E94A904DC01CB01BC01CD0120E030E052
:102BF00040E252E40E941903DC01CB018093C90139
:102C00009093CA01A093CB01B093CC01809168014D
:102C10009091690126E030E0B9010E94AE39CB0104
:102C20009C018091680190916901280F391F84E609
:102C300090E0AC01249FC001259F900D349F900D22
:102C4000112428E230E0B9010E94AE39CB01CC0159
:102C5000A0E0B0E0BC01CD010E94A904DC01CB01E1
:102C60008093C5019093C601A093C701B093C8019A
:102C700080E00E94C40DFE01E757FF4F80E090E026
:102C8000AAEFB3E480839183A283B3838E010B57B1
:102C90001F4FFE01E757FF4F608171818281938151
:102CA00020E030E04AEF54E40E941F02DC01CB0137
:102CB000F80180839183A283B383FE01EB57FF4F1A
:102CC000608171818281938120E030E040E85FE3A0
:102CD0000E942504882344F4FE01ED57FF4F81E054
:102CE00090E09183808364C0FE01EB57FF4F6081C9
:102CF00071818281938120E03FEF4FE757E40E948A
:102D0000C50318160CF043C0FE01E757FF4F608162
:102D100071818281938120E030E040E251E40E94A1
:102D20001F02DC01CB018E010D571F4FBC01CD01ED
:102D30000E944900DC01CB01F801918380831FC010
:102D4000FE01EF57FF4F88EC90E091838083FE01F6
:102D5000EF57FF4F808191810197F1F7FE01EF5707
:102D6000FF4F91838083DE01AD57BF4FFE01ED57CA
:102D7000FF4F80819181019711969C938E93FE0164
:102D8000ED57FF4F808191810097D1F627C08E01CA
:102D90000D571F4FFE01EB57FF4F608171818281FC
:102DA00093810E944900DC01CB01F801918380836B
:102DB000DE01A158BF4FFE01ED57FF4F8081918189
:102DC0008D939C93FE01E158FF4F80819181019783
:102DD000F1F7FE01E158FF4F9183808383E060E0CB
:102DE0000E949F09882309F0E4C3FE01E558FF4FC4
:102DF00080E090E0AAEFB3E480839183A283B38361
:102E00008E0109581F4FFE01E558FF4F6081718107
:102E10008281938120E030E04AEF54E40E941F0257
:102E2000DC01CB01F80180839183A283B383FE018F
:102E3000E958FF4F608171818281938120E030E009
:102E400040E85FE30E942504882344F4FE01EB5828
:102E5000FF4F81E090E09183808364C0FE01E958D8
:102E6000FF4F608171818281938120E03FEF4FE7C6
:102E700057E40E94C50318160CF043C0FE01E55844
:102E8000FF4F608171818281938120E030E040E2D8
:102E900051E40E941F02DC01CB018E010B581F4F31
:102EA000BC01CD010E944900DC01CB01F8019183F6
:102EB00080831FC0FE01ED58FF4F88EC90E09183A6
:102EC0008083FE01ED58FF4F808191810197F1F7DA
:102ED000FE01ED58FF4F91838083DE01AB58BF4F59
:102EE000FE01EB58FF4F80819181019711969C93D1
:102EF0008E93FE01EB58FF4F808191810097D1F6B0
:102F000027C08E010B581F4FFE01E958FF4F60810B
:102F10007181828193810E944900DC01CB01F8011B
:102F200091838083DE01AF58BF4FFE01EB58FF4F06
:102F3000808191818D939C93FE01EF58FF4F80819A
:102F400091810197F1F7FE01EF58FF4F9183808344
:102F500083E060E00E949F09882309F08CCE86E917
:102F60000E947135FE01E359FF4F80E090E0AAE72F
:102F7000B4E480839183A283B3838E0107591F4FEA
:102F8000FE01E359FF4F608171818281938120E0CE
:102F900030E04AEF54E40E941F02DC01CB01F8014B
:102FA00080839183A283B383FE01E759FF4F608141
:102FB00071818281938120E030E040E85FE30E94EC
:102FC0002504882344F4FE01E959FF4F81E090E095
:102FD0009183808364C0FE01E759FF4F6081718156
:102FE0008281938120E03FEF4FE757E40E94C503C1
:102FF00018160CF043C0FE01E359FF4F6081718148
:103000008281938120E030E040E251E40E941F027F
:10301000DC01CB018E0109591F4FBC01CD010E947B
:103020004900DC01CB01F801918380831FC0FE01C0
:10303000EB59FF4F88EC90E091838083FE01EB59C0
:10304000FF4F808191810197F1F7FE01EB59FF4F0E
:1030500091838083DE01A959BF4FFE01E959FF4FDB
:1030600080819181019711969C938E93FE01E9597D
:10307000FF4F808191810097D1F627C08E010959B9
:103080001F4FFE01E759FF4F60817181828193815B
:103090000E944900DC01CB01F80191838083DE01AD
:1030A000AD59BF4FFE01E959FF4F808191818D934A
:1030B0009C93FE01ED59FF4F808191810197F1F7BB
:1030C000FE01ED59FF4F918380830E942535FE015B
:1030D000E15AFF4F80E090E0AAEFB4E4808391834F
:1030E000A283B3838E01055A1F4FFE01E15AFF4FA1
:1030F000608171818281938120E030E04AEF54E465
:103100000E941F02DC01CB01F80180839183A2831E
:10311000B383FE01E55AFF4F608171818281938103
:1031200020E030E040E85FE30E942504882344F477
:10313000FE01E75AFF4F81E090E09183808364C0F5
:10314000FE01E55AFF4F608171818281938120E009
:103150003FEF4FE757E40E94C50318160CF043C039
:10316000FE01E15AFF4F608171818281938120E0ED
:1031700030E040E251E40E941F02DC01CB018E01ED
:10318000075A1F4FBC01CD010E944900DC01CB0151
:10319000F801918380831FC0FE01E95AFF4F88EC3C
:1031A00090E091838083FE01E95AFF4F80819181F5
:1031B0000197F1F7FE01E95AFF4F91838083DE0109
:1031C000A75ABF4FFE01E75AFF4F808191810197B7
:1031D00011969C938E93FE01E75AFF4F8081918157
:1031E0000097D1F627C08E01075A1F4FFE01E55AFE
:1031F000FF4F60817181828193810E944900DC01CF
:10320000CB01F80191838083DE01AB5ABF4FFE01F1
:10321000E75AFF4F808191818D939C93FE01EB5A79
:10322000FF4F808191810197F1F7FE01EB5AFF4F2B
:103230009183808380EA0E947135FE01EF5AFF4F2F
:1032400080E090E0AAE7B4E480839183A283B38313
:103250008E01035B1F4FFE01EF5AFF4F60817181AA
:103260008281938120E030E04AEF54E40E941F0203
:10327000DC01CB01F80180839183A283B383FE013B
:10328000E35BFF4F608171818281938120E030E0B8
:1032900040E85FE30E942504882344F4FE01E55BD7
:1032A000FF4F81E090E09183808364C0FE01E35B87
:1032B000FF4F608171818281938120E03FEF4FE772
:1032C00057E40E94C50318160CF043C0FE01EF5AE4
:1032D000FF4F608171818281938120E030E040E284
:1032E00051E40E941F02DC01CB018E01055B1F4FE0
:1032F000BC01CD010E944900DC01CB01F8019183A2
:1033000080831FC0FE01E75BFF4F88EC90E0918354
:103310008083FE01E75BFF4F808191810197F1F788
:10332000FE01E75BFF4F91838083DE01A55BBF4F0A
:10333000FE01E55BFF4F80819181019711969C937F
:103340008E93FE01E55BFF4F808191810097D1F65E
:1033500027C08E01055B1F4FFE01E35BFF4F6081BD
:103360007181828193810E944900DC01CB01F801C7
:1033700091838083DE01A95BBF4FFE01E55BFF4FB8
:10338000808191818D939C93FE01E95BFF4F808149
:1033900091810197F1F7FE01E95BFF4F91838083F3
:1033A0000E942535FEC0FE01ED5BFF4F80E090E0FE
:1033B000AAE7B3E480839183A283B3838E01015C87
:1033C0001F4FFE01ED5BFF4F608171818281938110
:1033D00020E030E04AEF54E40E941F02DC01CB0100
:1033E000F80180839183A283B383FE01FF966081FD
:1033F00071818281938120E030E040E85FE30E94A8
:10340000250488232CF481E090E09EAF8DAF46C068
:10341000FE01FF96608171818281938120E03FEF00
:103420004FE757E40E94C503181664F5FE01ED5BF3
:10343000FF4F608171818281938120E030E040E222
:1034400051E40E941F02DC01CB01BC01CD010E94AE
:103450004900DC01CB019EAF8DAF0FC088EC90E03E
:103460009CAF8BAF8BAD9CAD0197F1F79CAF8BAF51
:103470008DAD9EAD01979EAF8DAF8DAD9EAD00978A
:1034800069F716C0FE01FF96608171818281938188
:103490000E944900DC01CB019EAF8DAF8DAD9EAD8A
:1034A0009AAF89AF89AD9AAD0197F1F79AAF89AF1D
:1034B00083E060E00E949F09882309F474CF80E0D4
:1034C00090E0AAE7B4E48DAB9EABAFABB8AF6DA90B
:1034D0007EA98FA998AD20E030E04AEF54E40E9425
:1034E0001F02DC01CB0189AB9AABABABBCAB69A9CA
:1034F0007AA98BA99CA920E030E040E85FE30E9414
:10350000250488232CF481E090E098AB8FA73FC07E
:1035100069A97AA98BA99CA920E03FEF4FE757E45E
:103520000E94C50318164CF56DA97EA98FA998AD08
:1035300020E030E040E251E40E941F02DC01CB01B8
:10354000BC01CD010E944900DC01CB0198AB8FA7E3
:103550000FC088EC90E09EA78DA78DA59EA5019732
:10356000F1F79EA78DA78FA598A9019798AB8FA774
:103570008FA598A9009769F714C069A97AA98BA9A2
:103580009CA90E944900DC01CB0198AB8FA78FA5B5
:1035900098A99CA78BA78BA59CA50197F1F79CA741
:1035A0008BA783E060E00E949F09882309F480CF05
:1035B00062CB83E061E00E949F09882309F05BCB26
:1035C00080E090E0AAEFB3E48FA398A7A9A7BAA7D9
:1035D0006FA178A589A59AA520E030E04AEF54E4D0
:1035E0000E941F02DC01CB018BA39CA3ADA3BEA351
:1035F0006BA17CA18DA19EA120E030E040E85FE3BB
:103600000E94250488232CF481E090E09AA389A3EA
:103610003FC06BA17CA18DA19EA120E03FEF4FE7B1
:1036200057E40E94C50318164CF56FA178A589A52B
:103630009AA520E030E040E251E40E941F02DC0144
:10364000CB01BC01CD010E944900DC01CB019AA352
:1036500089A30FC088EC90E098A38F8F8F8D98A1DD
:103660000197F1F798A38F8F89A19AA101979AA347
:1036700089A389A19AA1009769F714C06BA17CA1C5
:103680008DA19EA10E944900DC01CB019AA389A3D0
:1036900089A19AA19E8F8D8F8D8D9E8D0197F1F7B7
:1036A0009E8F8D8F83E061E00E949F09882309F03F
:1036B000E2CA0E94FF25EBC080E090E0AAE7B3E4F5
:1036C000898F9A8FAB8FBC8F698D7A8D8B8D9C8DF6
:1036D00020E030E04AEF54E40E941F02DC01CB01FD
:1036E0008D8B9E8BAF8BB88F6D897E898F89988DDE
:1036F00020E030E040E85FE30E94250488232CF4BA
:1037000081E090E09C8B8B8B3FC06D897E898F8997
:10371000988D20E03FEF4FE757E40E94C50318164D
:103720004CF5698D7A8D8B8D9C8D20E030E040E2E8
:1037300051E40E941F02DC01CB01BC01CD010E94BB
:103740004900DC01CB019C8B8B8B0FC088EC90E097
:103750009A8B898B89899A890197F1F79A8B898B42
:103760008B899C8901979C8B8B8B8B899C8900977B
:1037700069F714C06D897E898F89988D0E944900F0
:10378000DC01CB019C8B8B8B8B899C89988B8F87E1
:103790008F8598890197F1F7988B8F8783E061E097
:1037A0000E949F09882309F487CF80E090E0AAE770
:1037B000B4E48B879C87AD87BE876B857C858D85C0
:1037C0009E8520E030E04AEF54E40E941F02DC01B5
:1037D000CB018F839887A987BA876F817885898580
:1037E0009A8520E030E040E85FE30E9425048823CA
:1037F0002CF481E090E09E838D833FC06F817885BB
:1038000089859A8520E03FEF4FE757E40E94C50382
:1038100018164CF56B857C858D859E8520E030E003
:1038200040E251E40E941F02DC01CB01BC01CD014A
:103830000E944900DC01CB019E838D830FC088EC80
:1038400090E09C838B838B819C810197F1F79C8313
:103850008B838D819E8101979E838D838D819E8137
:10386000009769F714C06F81788589859A850E94D1
:103870004900DC01CB019E838D838D819E819A83DB
:10388000898389819A810197F1F79A83898383E0FB
:1038900061E00E949F09882309F480CFECC9DF937F
:1038A000CF93CDB7DEB70E944A0E0E94321190939B
:1038B0009D0180939C010E94670E0E94E8119093E5
:1038C000C4018093C3010E94840E0E949E129093B3
:1038D000BE018093BD01CF91DF910895DF93CF9317
:1038E000CDB7DEB70E944A0E0E94321190939D011F
:1038F00080939C010E94840E0E949E129093BE01B0
:103900008093BD01CF91DF9108950F931F93DF93B3
:10391000CF93CDB7DEB7C45CD0400FB6F894DEBF0E
:103920000FBECDBF1092B401109289011092880190
:1039300086E90E9471359EC10E944F1C86E90E9453
:1039400071352091BD013091BE018091940190911B
:1039500095018217930708F087C10E942535FE0163
:10396000EF53FF4F80E090E0AAE7B4E480839183B7
:10397000A283B3838E0103541F4FFE01EF53FF4F09
:10398000608171818281938120E030E04AEF54E4CC
:103990000E941F02DC01CB01F80180839183A28386
:1039A000B383FE01E354FF4F608171818281938173
:1039B00020E030E040E85FE30E942504882344F4DF
:1039C000FE01E554FF4F81E090E09183808364C065
:1039D000FE01E354FF4F608171818281938120E079
:1039E0003FEF4FE757E40E94C50318160CF043C0A1
:1039F000FE01EF53FF4F608171818281938120E04E
:103A000030E040E251E40E941F02DC01CB018E0154
:103A100005541F4FBC01CD010E944900DC01CB01C0
:103A2000F801918380831FC0FE01E754FF4F88ECAB
:103A300090E091838083FE01E754FF4F8081918164
:103A40000197F1F7FE01E754FF4F91838083DE0178
:103A5000A554BF4FFE01E554FF4F8081918101972E
:103A600011969C938E93FE01E554FF4F80819181C6
:103A70000097D1F627C08E0105541F4FFE01E35475
:103A8000FF4F60817181828193810E944900DC0136
:103A9000CB01F80191838083DE01A954BF4FFE0161
:103AA000E554FF4F808191818D939C93FE01E954F1
:103AB000FF4F808191810197F1F7FE01E954FF4F9B
:103AC000918380830E944F1C8091B4018F5F80930B
:103AD000B40180EA0E9471358091A2019091A30106
:103AE0009C01220F331FC901880F991F880F991F4E
:103AF000820F931FCC01A0E0B0E0BC01CD010E9479
:103B0000A904DC01CB01FE01ED54FF4F80839183BA
:103B1000A283B3838E0101551F4FFE01ED54FF4F69
:103B2000608171818281938120E030E04AEF54E42A
:103B30000E941F02DC01CB01F80180839183A283E4
:103B4000B383FE01E155FF4F6081718182819381D2
:103B500020E030E040E85FE30E942504882344F43D
:103B6000FE01E355FF4F81E090E09183808364C0C4
:103B7000FE01E155FF4F608171818281938120E0D8
:103B80003FEF4FE757E40E94C50318160CF043C0FF
:103B9000FE01ED54FF4F608171818281938120E0AD
:103BA00030E040E251E40E941F02DC01CB018E01B3
:103BB00003551F4FBC01CD010E944900DC01CB0120
:103BC000F801918380831FC0FE01E555FF4F88EC0B
:103BD00090E091838083FE01E555FF4F80819181C4
:103BE0000197F1F7FE01E555FF4F91838083DE01D8
:103BF000A355BF4FFE01E355FF4F8081918101978F
:103C000011969C938E93FE01E355FF4F8081918125
:103C10000097D1F62FC08E0103551F4FFE01E155CD
:103C2000FF4F60817181828193810E944900DC0194
:103C3000CB01F80191838083DE01A755BF4FFE01C0
:103C4000E355FF4F8081918111969C938E93FE01E5
:103C5000E755FF4F808191810197F1F7FE01E7550C
:103C6000FF4F9183808306C08091B401853038F482
:103C70001092B4018091B401873008F45DCE809138
:103C8000B401873021F40E940E290C94F325809111
:103C9000B401853009F06BC40E94253586E90E9485
:103CA00047358091A4019091A501A091A601B09102
:103CB000A701BC01CD0120E030E040E251E40E94C8
:103CC0001F02DC01CB01FE01EB55FF4F8083918386
:103CD000A283B3838E010F551F4FFE01EB55FF4F9B
:103CE000608171818281938120E030E04AEF54E469
:103CF0000E941F02DC01CB01F80180839183A28323
:103D0000B383FE01EF55FF4F608171818281938102
:103D100020E030E040E85FE30E942504882344F47B
:103D2000FE01E156FF4F81E090E09183808364C003
:103D3000FE01EF55FF4F608171818281938120E008
:103D40003FEF4FE757E40E94C50318160CF043C03D
:103D5000FE01EB55FF4F608171818281938120E0EC
:103D600030E040E251E40E941F02DC01CB018E01F1
:103D700001561F4FBC01CD010E944900DC01CB015F
:103D8000F801918380831FC0FE01E356FF4F88EC4A
:103D900090E091838083FE01E356FF4F8081918103
:103DA0000197F1F7FE01E356FF4F91838083DE0117
:103DB000A156BF4FFE01E156FF4F808191810197CF
:103DC00011969C938E93FE01E156FF4F8081918165
:103DD0000097D1F627C08E0101561F4FFE01EF5507
:103DE000FF4F60817181828193810E944900DC01D3
:103DF000CB01F80191838083DE01A556BF4FFE0100
:103E0000E156FF4F808191818D939C93FE01E55691
:103E1000FF4F808191810197F1F7FE01E556FF4F39
:103E2000918380830E9425358AE50E94C40DFE019E
:103E3000E956FF4F80E090E0AAE7B4E480839183E5
:103E4000A283B3838E010D561F4FFE01E956FF4F2B
:103E5000608171818281938120E030E04AEF54E4F7
:103E60000E941F02DC01CB01F80180839183A283B1
:103E7000B383FE01ED56FF4F608171818281938192
:103E800020E030E040E85FE30E942504882344F40A
:103E9000FE01EF56FF4F81E090E09183808364C084
:103EA000FE01ED56FF4F608171818281938120E098
:103EB0003FEF4FE757E40E94C50318160CF043C0CC
:103EC000FE01E956FF4F608171818281938120E07C
:103ED00030E040E251E40E941F02DC01CB018E0180
:103EE0000F561F4FBC01CD010E944900DC01CB01E0
:103EF000F801918380831FC0FE01E157FF4F88ECDA
:103F000090E091838083FE01E157FF4F8081918192
:103F10000197F1F7FE01E157FF4F91838083DE01A6
:103F2000AF56BF4FFE01EF56FF4F80819181019741
:103F300011969C938E93FE01EF56FF4F80819181E5
:103F40000097D1F627C08E010F561F4FFE01ED5688
:103F5000FF4F60817181828193810E944900DC0161
:103F6000CB01F80191838083DE01A357BF4FFE018F
:103F7000EF56FF4F808191818D939C93FE01E35713
:103F8000FF4F808191810197F1F7FE01E357FF4FC9
:103F9000918380838AE50E94590BFE01E757FF4F0A
:103FA00080E090E4ACE9B5E480839183A283B3839D
:103FB0008E010B571F4FFE01E757FF4F6081718144
:103FC0008281938120E030E04AEF54E40E941F0296
:103FD000DC01CB01F80180839183A283B383FE01CE
:103FE000EB57FF4F608171818281938120E030E047
:103FF00040E85FE30E942504882344F4FE01ED5766
:10400000FF4F81E090E09183808364C0FE01EB5715
:10401000FF4F608171818281938120E03FEF4FE704
:1040200057E40E94C50318160CF043C0FE01E75781
:10403000FF4F608171818281938120E030E040E216
:1040400051E40E941F02DC01CB018E010D571F4F6E
:10405000BC01CD010E944900DC01CB01F801918334
:1040600080831FC0FE01EF57FF4F88EC90E09183E3
:104070008083FE01EF57FF4F808191810197F1F717
:10408000FE01EF57FF4F91838083DE01AD57BF4F95
:10409000FE01ED57FF4F80819181019711969C930E
:1040A0008E93FE01ED57FF4F808191810097D1F6ED
:1040B00027C08E010D571F4FFE01EB57FF4F608148
:1040C0007181828193810E944900DC01CB01F8015A
:1040D00091838083DE01A158BF4FFE01ED57FF4F52
:1040E000808191818D939C93FE01E158FF4F8081E7
:1040F00091810197F1F7FE01E158FF4F9183808391
:1041000086E90E945E3586E90E9434358091C501BA
:104110009091C601A091C701B091C801BC01CD0129
:1041200020E030E040E251E40E941F02DC01CB01BC
:10413000FE01E558FF4F80839183A283B3838E01F4
:1041400009581F4FFE01E558FF4F60817181828140
:10415000938120E030E04AEF54E40E941F02DC012A
:10416000CB01F80180839183A283B383FE01E958D8
:10417000FF4F608171818281938120E030E040E8CF
:104180005FE30E942504882344F4FE01EB58FF4FAF
:1041900081E090E09183808364C0FE01E958FF4F85
:1041A000608171818281938120E03FEF4FE757E486
:1041B0000E94C50318160CF043C0FE01E558FF4FDE
:1041C000608171818281938120E030E040E251E49E
:1041D0000E941F02DC01CB018E010B581F4FBC0156
:1041E000CD010E944900DC01CB01F801918380835D
:1041F0001FC0FE01ED58FF4F88EC90E09183808353
:10420000FE01ED58FF4F808191810197F1F7FE018A
:10421000ED58FF4F91838083DE01AB58BF4FFE0105
:10422000EB58FF4F80819181019711969C938E935B
:10423000FE01EB58FF4F808191810097D1F627C096
:104240008E010B581F4FFE01E958FF4F60817181AD
:10425000828193810E944900DC01CB01F8019183A6
:104260008083DE01AF58BF4FFE01EB58FF4F8081C6
:1042700091818D939C93FE01EF58FF4F8081918136
:104280000197F1F7FE01EF58FF4F918380830E9461
:10429000253580E00E94C40DFE01E359FF4F80E008
:1042A00090E0AAE7B4E480839183A283B3838E0174
:1042B00007591F4FFE01E359FF4F608171818281D1
:1042C000938120E030E04AEF54E40E941F02DC01B9
:1042D000CB01F80180839183A283B383FE01E75968
:1042E000FF4F608171818281938120E030E040E85E
:1042F0005FE30E942504882344F4FE01E959FF4F3F
:1043000081E090E09183808364C0FE01E759FF4F14
:10431000608171818281938120E03FEF4FE757E414
:104320000E94C50318160CF043C0FE01E359FF4F6D
:10433000608171818281938120E030E040E251E42C
:104340000E941F02DC01CB018E0109591F4FBC01E5
:10435000CD010E944900DC01CB01F80191838083EB
:104360001FC0FE01EB59FF4F88EC90E091838083E2
:10437000FE01EB59FF4F808191810197F1F7FE011A
:10438000EB59FF4F91838083DE01A959BF4FFE0196
:10439000E959FF4F80819181019711969C938E93EB
:1043A000FE01E959FF4F808191810097D1F627C026
:1043B0008E0109591F4FFE01E759FF4F608171813E
:1043C000828193810E944900DC01CB01F801918335
:1043D0008083DE01AD59BF4FFE01E959FF4F808157
:1043E00091818D939C93FE01ED59FF4F80819181C6
:1043F0000197F1F7FE01ED59FF4F9183808380E033
:104400000E94590BFE01E15AFF4F80E090E0AAE7BD
:10441000B4E480839183A283B3838E01055A1F4F36
:10442000FE01E15AFF4F608171818281938120E01A
:1044300030E04AEF54E40E941F02DC01CB01F80196
:1044400080839183A283B383FE01E55AFF4F60818D
:1044500071818281938120E030E040E85FE30E9437
:104460002504882344F4FE01E75AFF4F81E090E0E1
:104470009183808364C0FE01E55AFF4F60817181A2
:104480008281938120E03FEF4FE757E40E94C5030C
:1044900018160CF043C0FE01E15AFF4F6081718194
:1044A0008281938120E030E040E251E40E941F02CB
:1044B000DC01CB018E01075A1F4FBC01CD010E94C8
:1044C0004900DC01CB01F801918380831FC0FE010C
:1044D000E95AFF4F88EC90E091838083FE01E95A0E
:1044E000FF4F808191810197F1F7FE01E95AFF4F5B
:1044F00091838083DE01A75ABF4FFE01E75AFF4F29
:1045000080819181019711969C938E93FE01E75AC9
:10451000FF4F808191810097D1F665C38E01075AC4
:104520001F4FFE01E55AFF4F6081718182819381A7
:104530000E944900DC01CB01F80191838083DE01F8
:10454000AB5ABF4FFE01E75AFF4F80819181119610
:104550009C938E93FE01EB5AFF4F808191810197CE
:10456000F1F7FE01EB5AFF4F918380833CC38091AA
:10457000B401863009F037C30E94253586E90E94D0
:1045800047358091C9019091CA01A091CB01B091AA
:10459000CC01BC01CD0120E030E040E251E40E94BA
:1045A0001F02DC01CB01FE01EF5AFF4F8083918394
:1045B000A283B3838E01035B1F4FFE01EF5AFF4FAF
:1045C000608171818281938120E030E04AEF54E480
:1045D0000E941F02DC01CB01F80180839183A2833A
:1045E000B383FE01E35BFF4F608171818281938120
:1045F00020E030E040E85FE30E942504882344F493
:10460000FE01E55BFF4F81E090E09183808364C011
:10461000FE01E35BFF4F608171818281938120E025
:104620003FEF4FE757E40E94C50318160CF043C054
:10463000FE01EF5AFF4F608171818281938120E0FA
:1046400030E040E251E40E941F02DC01CB018E0108
:10465000055B1F4FBC01CD010E944900DC01CB016D
:10466000F801918380831FC0FE01E75BFF4F88EC58
:1046700090E091838083FE01E75BFF4F8081918111
:104680000197F1F7FE01E75BFF4F91838083DE0125
:10469000A55BBF4FFE01E55BFF4F808191810197D4
:1046A00011969C938E93FE01E55BFF4F8081918173
:1046B0000097D1F627C08E01055B1F4FFE01E35B1B
:1046C000FF4F60817181828193810E944900DC01EA
:1046D000CB01F80191838083DE01A95BBF4FFE010E
:1046E000E55BFF4F808191818D939C93FE01E95B97
:1046F000FF4F808191810197F1F7FE01E95BFF4F48
:10470000918380830E9425358AE50E94C40DFE01B5
:10471000ED5BFF4F80E090E0AAE7B4E480839183F3
:10472000A283B3838E01015C1F4FFE01ED5BFF4F3F
:10473000608171818281938120E030E04AEF54E40E
:104740000E941F02DC01CB01F80180839183A283C8
:10475000B383FE01FF96608171818281938120E0A5
:1047600030E040E85FE30E94250488232CF481E0D8
:1047700090E09EAF8DAF46C0FE01FF9660817181D3
:104780008281938120E03FEF4FE757E40E94C50309
:10479000181664F5FE01ED5BFF4F60817181828127
:1047A000938120E030E040E251E40E941F02DC01EE
:1047B000CB01BC01CD010E944900DC01CB019EAFC1
:1047C0008DAF0FC088EC90E09CAF8BAF8BAD9CADF4
:1047D0000197F1F79CAF8BAF8DAD9EAD01979EAF6A
:1047E0008DAF8DAD9EAD009769F716C0FE01FF96A7
:1047F00060817181828193810E944900DC01CB013B
:104800009EAF8DAF8DAD9EAD9AAF89AF89AD9AAD9C
:104810000197F1F79AAF89AF8AE50E94590B80E0C2
:1048200090E4ACE9B5E48DAB9EABAFABB8AF6DA98E
:104830007EA98FA998AD20E030E04AEF54E40E94B1
:104840001F02DC01CB0189AB9AABABABBCAB69A956
:104850007AA98BA99CA920E030E040E85FE30E94A0
:10486000250488232CF481E090E098AB8FA73FC00B
:1048700069A97AA98BA99CA920E03FEF4FE757E4EB
:104880000E94C50318164CF56DA97EA98FA998AD95
:1048900020E030E040E251E40E941F02DC01CB0145
:1048A000BC01CD010E944900DC01CB0198AB8FA770
:1048B0000FC088EC90E09EA78DA78DA59EA50197BF
:1048C000F1F79EA78DA78FA598A9019798AB8FA701
:1048D0008FA598A9009769F714C069A97AA98BA92F
:1048E0009CA90E944900DC01CB0198AB8FA78FA542
:1048F00098A99CA78BA78BA59CA50197F1F79CA7CE
:104900008BA786E90E945E3586E90E943435809146
:10491000C5019091C601A091C701B091C801BC0129
:10492000CD0120E030E040E251E40E941F02DC01B2
:10493000CB018FA398A7A9A7BAA76FA178A589A52E
:104940009AA520E030E04AEF54E40E941F02DC0107
:10495000CB018BA39CA3ADA3BEA36BA17CA18DA116
:104960009EA120E030E040E85FE30E942504882318
:104970002CF481E090E09AA389A33FC06BA17CA1B5
:104980008DA19EA120E03FEF4FE757E40E94C503B1
:1049900018164CF56FA178A589A59AA520E030E0FE
:1049A00040E251E40E941F02DC01CB01BC01CD01B9
:1049B0000E944900DC01CB019AA389A30FC088ECB7
:1049C00090E098A38F8F8F8D98A10197F1F798A30E
:1049D0008F8F89A19AA101979AA389A389A19AA1EE
:1049E000009769F714C06BA17CA18DA19EA10E94C4
:1049F0004900DC01CB019AA389A389A19AA19E8FCA
:104A00008D8F8D8D9E8D0197F1F79E8F8D8F0E94DA
:104A1000253580E00E94C40D80E090E0AAE7B4E470
:104A2000898F9A8FAB8FBC8F698D7A8D8B8D9C8D82
:104A300020E030E04AEF54E40E941F02DC01CB0189
:104A40008D8B9E8BAF8BB88F6D897E898F89988D6A
:104A500020E030E040E85FE30E94250488232CF446
:104A600081E090E09C8B8B8B3FC06D897E898F8924
:104A7000988D20E03FEF4FE757E40E94C5031816DA
:104A80004CF5698D7A8D8B8D9C8D20E030E040E275
:104A900051E40E941F02DC01CB01BC01CD010E9448
:104AA0004900DC01CB019C8B8B8B0FC088EC90E024
:104AB0009A8B898B89899A890197F1F79A8B898BCF
:104AC0008B899C8901979C8B8B8B8B899C89009708
:104AD00069F714C06D897E898F89988D0E9449007D
:104AE000DC01CB019C8B8B8B8B899C89988B8F876E
:104AF0008F8598890197F1F7988B8F8780E00E94C6
:104B0000590B80E090E0AAE7B4E48B879C87AD87DF
:104B1000BE876B857C858D859E8520E030E04AEFE1
:104B200054E40E941F02DC01CB018F839887A98780
:104B3000BA876F81788589859A8520E030E040E8E2
:104B40005FE30E94250488232CF481E090E09E839B
:104B50008D833FC06F81788589859A8520E03FEFFE
:104B60004FE757E40E94C50318164CF56B857C850A
:104B70008D859E8520E030E040E251E40E941F02D6
:104B8000DC01CB01BC01CD010E944900DC01CB015D
:104B90009E838D830FC088EC90E09C838B838B81F8
:104BA0009C810197F1F79C838B838D819E81019776
:104BB0009E838D838D819E81009769F714C06F81DC
:104BC000788589859A850E944900DC01CB019E8306
:104BD0008D838D819E819A83898389819A810197B2
:104BE000F1F79A838983CC53DF4F0FB6F894DEBF79
:104BF0000FBECDBFCF91DF911F910F9108950F93FD
:104C00001F93DF93CF93CDB7DEB7C654D0400FB616
:104C1000F894DEBF0FBECDBF1092B401109289018F
:104C200010928801F8C00E946E1C81E00E94590B0E
:104C30000E94750B882F90E09093C4018093C3016C
:104C40008091B4018F5F8093B40120919C013091D9
:104C50009D018091C3019091C401820F931F8932FD
:104C6000910508F4D8C080919C0190919D018932F2
:104C7000910518F00E94AA35D3C080919C019091B3
:104C80009D018832910508F0C6C020916A013091DB
:104C90006B0180919C0190919D01281B390B84E64A
:104CA00090E0AC01249FC001259F900D349F900D92
:104CB000112428E230E0B9010E94AE39CB01CC01C9
:104CC000A0E0B0E0BC01CD010E94A904DC01CB0151
:104CD0008093B7019093B801A093B901B093BA0142
:104CE00086E90E9447358091B7019091B801A09163
:104CF000B901B091BA01BC01CD0120E030E040E241
:104D000051E40E941F02DC01CB01FE01ED5BFF4F6D
:104D100080839183A283B3838E01015C1F4FFE01C8
:104D2000ED5BFF4F608171818281938120E030E0F3
:104D30004AEF54E40E941F02DC01CB01F80180839A
:104D40009183A283B383FE01FF966081718182818A
:104D5000938120E030E040E85FE30E94250488234F
:104D60002CF481E090E09EAF8DAF46C0FE01FF962F
:104D7000608171818281938120E03FEF4FE757E4AA
:104D80000E94C503181664F5FE01ED5BFF4F6081BC
:104D900071818281938120E030E040E251E40E9401
:104DA0001F02DC01CB01BC01CD010E944900DC01E6
:104DB000CB019EAF8DAF0FC088EC90E09CAF8BAF66
:104DC0008BAD9CAD0197F1F79CAF8BAF8DAD9EADD8
:104DD00001979EAF8DAF8DAD9EAD009769F716C060
:104DE000FE01FF9660817181828193810E9449005A
:104DF000DC01CB019EAF8DAF8DAD9EAD9AAF89AF7B
:104E000089AD9AAD0197F1F79AAF89AF0E94253528
:104E10000E94AA3505C08091B401843008F403CF04
:104E20008091B401843008F4EDC18AE50E94C40D7C
:104E30008AE50E94590B80E090E4ACE9B5E48DABC3
:104E40009EABAFABB8AF6DA97EA98FA998AD20E09E
:104E500030E04AEF54E40E941F02DC01CB0189AB31
:104E60009AABABABBCAB69A97AA98BA99CA920E092
:104E700030E040E85FE30E94250488232CF481E0C1
:104E800090E098AB8FA73FC069A97AA98BA99CA98C
:104E900020E03FEF4FE757E40E94C50318164CF59A
:104EA0006DA97EA98FA998AD20E030E040E251E4E1
:104EB0000E941F02DC01CB01BC01CD010E94490010
:104EC000DC01CB0198AB8FA70FC088EC90E09EA7C8
:104ED0008DA78DA59EA50197F1F79EA78DA78FA5FC
:104EE00098A9019798AB8FA78FA598A9009769F704
:104EF00014C069A97AA98BA99CA90E944900DC0168
:104F0000CB0198AB8FA78FA598A99CA78BA78BA542
:104F10009CA50197F1F79CA78BA786E90E9488358D
:104F200086E90E9412358091C5019091C601A09139
:104F3000C701B091C801BC01CD0120E030E040E2E2
:104F400051E40E941F02DC01CB018FA398A7A9A7FF
:104F5000BAA76FA178A589A59AA520E030E04AEF0D
:104F600054E40E941F02DC01CB018BA39CA3ADA3E0
:104F7000BEA36BA17CA18DA19EA120E030E040E802
:104F80005FE30E94250488232CF481E090E09AA33B
:104F900089A33FC06BA17CA18DA19EA120E03FEF22
:104FA0004FE757E40E94C50318164CF56FA178A58A
:104FB00089A59AA520E030E040E251E40E941F025A
:104FC000DC01CB01BC01CD010E944900DC01CB0119
:104FD0009AA389A30FC088EC90E098A38F8F8F8D40
:104FE00098A10197F1F798A38F8F89A19AA10197B2
:104FF0009AA389A389A19AA1009769F714C06BA10C
:105000007CA18DA19EA10E944900DC01CB019AA345
:1050100089A389A19AA19E8F8D8F8D8D9E8D0197D9
:10502000F1F79E8F8D8F0E9425358DE20E94590BDE
:1050300080E090E0AAE7B4E4898F9A8FAB8FBC8FB1
:10504000698D7A8D8B8D9C8D20E030E04AEF54E4A1
:105050000E941F02DC01CB018D8B9E8BAF8BB88F22
:105060006D897E898F89988D20E030E040E85FE38C
:105070000E94250488232CF481E090E09C8B8B8B8C
:105080003FC06D897E898F89988D20E03FEF4FE783
:1050900057E40E94C50318164CF5698D7A8D8B8DE7
:1050A0009C8D20E030E040E251E40E941F02DC01D0
:1050B000CB01BC01CD010E944900DC01CB019C8BDE
:1050C0008B8B0FC088EC90E09A8B898B89899A89A9
:1050D0000197F1F79A8B898B8B899C8901979C8B1F
:1050E0008B8B8B899C89009769F714C06D897E89A9
:1050F0008F89988D0E944900DC01CB019C8B8B8BA2
:105100008B899C89988B8F878F8598890197F1F778
:10511000988B8F8780E00E94590B80E00E94C40D1D
:1051200080E090E0AAE7B4E48B879C87AD87BE87D8
:105130006B857C858D859E8520E030E04AEF54E4C8
:105140000E941F02DC01CB018F839887A987BA8751
:105150006F81788589859A8520E030E040E85FE3BB
:105160000E94250488232CF481E090E09E838D83A7
:105170003FC06F81788589859A8520E03FEF4FE7B2
:1051800057E40E94C50318164CF56B857C858D8508
:105190009E8520E030E040E251E40E941F02DC01E5
:1051A000CB01BC01CD010E944900DC01CB019E83F3
:1051B0008D830FC088EC90E09C838B838B819C81D6
:1051C0000197F1F79C838B838D819E8101979E834C
:1051D0008D838D819E81009769F714C06F817885DA
:1051E00089859A850E944900DC01CB019E838D83CD
:1051F0008D819E819A83898389819A810197F1F7B4
:105200009A838983CA5BDF4F0FB6F894DEBF0FBE67
:10521000CDBFCF91DF911F910F9108950F931F93F1
:10522000DF93CF93CDB7DEB7CC5FD0400FB6F89405
:10523000DEBF0FBECDBF1092B4010E94253586E9B6
:105240000E9471358091A8019091A901A091AA01B5
:10525000B091AB01BC01CD0120E030E040E251E46F
:105260000E941F02DC01CB01FE01E750FF4F80834B
:105270009183A283B3838E010B501F4FFE01E75031
:10528000FF4F608171818281938120E030E04AEF9D
:1052900054E40E941F02DC01CB01F801808391835A
:1052A000A283B383FE01EB50FF4F60817181828145
:1052B000938120E030E040E85FE30E9425048823EA
:1052C00044F4FE01ED50FF4F81E090E09183808334
:1052D00064C0FE01EB50FF4F608171818281938138
:1052E00020E03FEF4FE757E40E94C50318160CF08B
:1052F00043C0FE01E750FF4F60817181828193813D
:1053000020E030E040E251E40E941F02DC01CB01CA
:105310008E010D501F4FBC01CD010E944900DC01E0
:10532000CB01F801918380831FC0FE01EF50FF4F36
:1053300088EC90E091838083FE01EF50FF4F8081E5
:1053400091810197F1F7FE01EF50FF4F9183808328
:10535000DE01AD50BF4FFE01ED50FF4F80819181C6
:10536000019711969C938E93FE01ED50FF4F808123
:1053700091810097D1F627C08E010D501F4FFE017D
:10538000EB50FF4F60817181828193810E944900BF
:10539000DC01CB01F80191838083DE01A151BF4F75
:1053A000FE01ED50FF4F808191818D939C93FE0112
:1053B000E151FF4F808191810197F1F7FE01E151A9
:1053C000FF4F918380830E942535FE01E551FF4FF9
:1053D00080E090E8ABEBB4E480839183A283B38355
:1053E0008E0109511F4FFE01E551FF4F6081718110
:1053F0008281938120E030E04AEF54E40E941F0252
:10540000DC01CB01F80180839183A283B383FE0189
:10541000E951FF4F608171818281938120E030E00A
:1054200040E85FE30E942504882344F4FE01EB5129
:10543000FF4F81E090E09183808364C0FE01E951D9
:10544000FF4F608171818281938120E03FEF4FE7C0
:1054500057E40E94C50318160CF043C0FE01E55145
:10546000FF4F608171818281938120E030E040E2D2
:1054700051E40E941F02DC01CB018E010B511F4F32
:10548000BC01CD010E944900DC01CB01F8019183F0
:1054900080831FC0FE01ED51FF4F88EC90E09183A7
:1054A0008083FE01ED51FF4F808191810197F1F7DB
:1054B000FE01ED51FF4F91838083DE01AB51BF4F61
:1054C000FE01EB51FF4F80819181019711969C93D2
:1054D0008E93FE01EB51FF4F808191810097D1F6B1
:1054E00027C08E010B511F4FFE01E951FF4F608114
:1054F0007181828193810E944900DC01CB01F80116
:1055000091838083DE01AF51BF4FFE01EB51FF4F0E
:10551000808191818D939C93FE01EF51FF4F80819B
:1055200091810197F1F7FE01EF51FF4F9183808345
:105530008DE20E94590BFE01E352FF4F80E090E0A4
:10554000AAEFB3E480839183A283B3838E010752D1
:105550001F4FFE01E352FF4F608171818281938171
:1055600020E030E04AEF54E40E941F02DC01CB014E
:10557000F80180839183A283B383FE01E752FF4F3A
:10558000608171818281938120E030E040E85FE3B7
:105590000E942504882344F4FE01E952FF4F81E074
:1055A00090E09183808364C0FE01E752FF4F6081E9
:1055B00071818281938120E03FEF4FE757E40E94A1
:1055C000C50318160CF043C0FE01E352FF4F608183
:1055D00071818281938120E030E040E251E40E94B9
:1055E0001F02DC01CB018E0109521F4FBC01CD010E
:1055F0000E944900DC01CB01F801918380831FC028
:10560000FE01EB52FF4F88EC90E091838083FE0116
:10561000EB52FF4F808191810197F1F7FE01EB5230
:10562000FF4F91838083DE01A952BF4FFE01E952F3
:10563000FF4F80819181019711969C938E93FE017B
:10564000E952FF4F808191810097D1F627C08E01EA
:1056500009521F4FFE01E752FF4F60817181828125
:1056600093810E944900DC01CB01F8019183808382
:10567000DE01AD52BF4FFE01E952FF4F80819181A3
:105680008D939C93FE01ED52FF4F80819181019794
:10569000F1F7FE01ED52FF4F918380838DE20E946E
:1056A000590BFE01E153FF4F80E090E0AAE7B4E41C
:1056B00080839183A283B3838E0105531F4FFE0124
:1056C000E153FF4F608171818281938120E030E05E
:1056D0004AEF54E40E941F02DC01CB01F8018083F1
:1056E0009183A283B383FE01E553FF4F60817181F3
:1056F0008281938120E030E040E85FE30E9425044E
:10570000882344F4FE01E753FF4F81E090E091834A
:10571000808364C0FE01E553FF4F60817181828107
:10572000938120E03FEF4FE757E40E94C50318162E
:105730000CF043C0FE01E153FF4F60817181828113
:10574000938120E030E040E251E40E941F02DC013E
:10575000CB018E0107531F4FBC01CD010E944900B0
:10576000DC01CB01F801918380831FC0FE01E95366
:10577000FF4F88EC90E091838083FE01E953FF4F57
:10578000808191810197F1F7FE01E953FF4F9183E9
:105790008083DE01A753BF4FFE01E753FF4F808197
:1057A0009181019711969C938E93FE01E753FF4FD1
:1057B000808191810097D1F627C08E0107531F4F3A
:1057C000FE01E553FF4F60817181828193810E94C8
:1057D0004900DC01CB01F80191838083DE01AB53EA
:1057E000BF4FFE01E753FF4F808191818D939C93C2
:1057F000FE01EB53FF4F808191810197F1F7FE018C
:10580000EB53FF4F9183808386E90E944735809157
:10581000900190919101A0919201B0919301BC01EE
:10582000CD0120E030E040E251E40E941F02DC01A3
:10583000CB01FE01EF53FF4F80839183A283B3839B
:105840008E0103541F4FFE01EF53FF4F60817181A2
:105850008281938120E030E04AEF54E40E941F02ED
:10586000DC01CB01F80180839183A283B383FE0125
:10587000E354FF4F608171818281938120E030E0A9
:1058800040E85FE30E942504882344F4FE01E554C8
:10589000FF4F81E090E09183808364C0FE01E35478
:1058A000FF4F608171818281938120E03FEF4FE75C
:1058B00057E40E94C50318160CF043C0FE01EF53D5
:1058C000FF4F608171818281938120E030E040E26E
:1058D00051E40E941F02DC01CB018E0105541F4FD1
:1058E000BC01CD010E944900DC01CB01F80191838C
:1058F00080831FC0FE01E754FF4F88EC90E0918346
:105900008083FE01E754FF4F808191810197F1F779
:10591000FE01E754FF4F91838083DE01A554BF4F02
:10592000FE01E554FF4F80819181019711969C9370
:105930008E93FE01E554FF4F808191810097D1F64F
:1059400027C08E0105541F4FFE01E354FF4F6081B5
:105950007181828193810E944900DC01CB01F801B1
:1059600091838083DE01A954BF4FFE01E554FF4FB0
:10597000808191818D939C93FE01E954FF4F80813A
:1059800091810197F1F7FE01E954FF4F91838083E4
:105990000E94253580E00E94590BFE01ED54FF4F17
:1059A00080E090E0AAE7B4E480839183A283B3838C
:1059B0008E0101551F4FFE01ED54FF4F6081718133
:1059C0008281938120E030E04AEF54E40E941F027C
:1059D000DC01CB01F80180839183A283B383FE01B4
:1059E000E155FF4F608171818281938120E030E039
:1059F00040E85FE30E942504882344F4FE01E35558
:105A0000FF4F81E090E09183808364C0FE01E15507
:105A1000FF4F608171818281938120E03FEF4FE7EA
:105A200057E40E94C50318160CF043C0FE01ED5464
:105A3000FF4F608171818281938120E030E040E2FC
:105A400051E40E941F02DC01CB018E0103551F4F60
:105A5000BC01CD010E944900DC01CB01F80191831A
:105A600080831FC0FE01E555FF4F88EC90E09183D5
:105A70008083FE01E555FF4F808191810197F1F709
:105A8000FE01E555FF4F91838083DE01A355BF4F93
:105A9000FE01E355FF4F80819181019711969C9300
:105AA0008E93FE01E355FF4F808191810097D1F6DF
:105AB00027C08E0103551F4FFE01E155FF4F608146
:105AC0007181828193810E944900DC01CB01F80140
:105AD00091838083DE01A755BF4FFE01E355FF4F41
